{
  "_format": "hh-sol-artifact-1",
  "contractName": "Staking",
  "sourceName": "contracts/Staking.sol",
  "abi": [
    {
      "inputs": [
        {
          "internalType": "uint256",
          "name": "_ethusdPrice",
          "type": "uint256"
        }
      ],
      "stateMutability": "payable",
      "type": "constructor"
    },
    {
      "inputs": [
        {
          "internalType": "string",
          "name": "name",
          "type": "string"
        },
        {
          "internalType": "string",
          "name": "symbol",
          "type": "string"
        },
        {
          "internalType": "address",
          "name": "tokenAddress",
          "type": "address"
        },
        {
          "internalType": "uint256",
          "name": "usdPrice",
          "type": "uint256"
        },
        {
          "internalType": "uint256",
          "name": "apy",
          "type": "uint256"
        }
      ],
      "name": "addToken",
      "outputs": [],
      "stateMutability": "nonpayable",
      "type": "function"
    },
    {
      "inputs": [
        {
          "internalType": "uint256",
          "name": "_apy",
          "type": "uint256"
        },
        {
          "internalType": "uint256",
          "name": "_value",
          "type": "uint256"
        },
        {
          "internalType": "uint256",
          "name": "_numberofDays",
          "type": "uint256"
        }
      ],
      "name": "calculateInterest",
      "outputs": [
        {
          "internalType": "uint256",
          "name": "",
          "type": "uint256"
        }
      ],
      "stateMutability": "pure",
      "type": "function"
    },
    {
      "inputs": [
        {
          "internalType": "uint256",
          "name": "_createdDays",
          "type": "uint256"
        }
      ],
      "name": "calculateNumberDays",
      "outputs": [
        {
          "internalType": "uint256",
          "name": "",
          "type": "uint256"
        }
      ],
      "stateMutability": "view",
      "type": "function"
    },
    {
      "inputs": [
        {
          "internalType": "uint256",
          "name": "_positionId",
          "type": "uint256"
        }
      ],
      "name": "closePosition",
      "outputs": [],
      "stateMutability": "nonpayable",
      "type": "function"
    },
    {
      "inputs": [],
      "name": "currentPositionId",
      "outputs": [
        {
          "internalType": "uint256",
          "name": "",
          "type": "uint256"
        }
      ],
      "stateMutability": "view",
      "type": "function"
    },
    {
      "inputs": [],
      "name": "currentTokenId",
      "outputs": [
        {
          "internalType": "uint256",
          "name": "",
          "type": "uint256"
        }
      ],
      "stateMutability": "view",
      "type": "function"
    },
    {
      "inputs": [],
      "name": "ethUsdPrice",
      "outputs": [
        {
          "internalType": "uint256",
          "name": "",
          "type": "uint256"
        }
      ],
      "stateMutability": "view",
      "type": "function"
    },
    {
      "inputs": [
        {
          "internalType": "uint256",
          "name": "_positionId",
          "type": "uint256"
        }
      ],
      "name": "getPositionById",
      "outputs": [
        {
          "components": [
            {
              "internalType": "uint256",
              "name": "positionId",
              "type": "uint256"
            },
            {
              "internalType": "address",
              "name": "walletAddress",
              "type": "address"
            },
            {
              "internalType": "string",
              "name": "name",
              "type": "string"
            },
            {
              "internalType": "string",
              "name": "symbol",
              "type": "string"
            },
            {
              "internalType": "uint256",
              "name": "createDate",
              "type": "uint256"
            },
            {
              "internalType": "uint256",
              "name": "apy",
              "type": "uint256"
            },
            {
              "internalType": "uint256",
              "name": "tokenQuantity",
              "type": "uint256"
            },
            {
              "internalType": "uint256",
              "name": "usdValue",
              "type": "uint256"
            },
            {
              "internalType": "uint256",
              "name": "ethValue",
              "type": "uint256"
            },
            {
              "internalType": "bool",
              "name": "open",
              "type": "bool"
            }
          ],
          "internalType": "struct Staking.Position",
          "name": "",
          "type": "tuple"
        }
      ],
      "stateMutability": "view",
      "type": "function"
    },
    {
      "inputs": [],
      "name": "getPositionIdsForAddress",
      "outputs": [
        {
          "internalType": "uint256[]",
          "name": "",
          "type": "uint256[]"
        }
      ],
      "stateMutability": "view",
      "type": "function"
    },
    {
      "inputs": [
        {
          "internalType": "string",
          "name": "_tokenSymbols",
          "type": "string"
        }
      ],
      "name": "getToken",
      "outputs": [
        {
          "components": [
            {
              "internalType": "uint256",
              "name": "tokenId",
              "type": "uint256"
            },
            {
              "internalType": "string",
              "name": "name",
              "type": "string"
            },
            {
              "internalType": "string",
              "name": "symbol",
              "type": "string"
            },
            {
              "internalType": "address",
              "name": "tokenAddress",
              "type": "address"
            },
            {
              "internalType": "uint256",
              "name": "usdPrice",
              "type": "uint256"
            },
            {
              "internalType": "uint256",
              "name": "ethPrice",
              "type": "uint256"
            },
            {
              "internalType": "uint256",
              "name": "apy",
              "type": "uint256"
            }
          ],
          "internalType": "struct Staking.Token",
          "name": "",
          "type": "tuple"
        }
      ],
      "stateMutability": "view",
      "type": "function"
    },
    {
      "inputs": [],
      "name": "getTokenSymbols",
      "outputs": [
        {
          "internalType": "string[]",
          "name": "",
          "type": "string[]"
        }
      ],
      "stateMutability": "view",
      "type": "function"
    },
    {
      "inputs": [
        {
          "internalType": "uint256",
          "name": "_positionId",
          "type": "uint256"
        },
        {
          "internalType": "uint256",
          "name": "_newCreatedDate",
          "type": "uint256"
        }
      ],
      "name": "modifyCreatedDate",
      "outputs": [],
      "stateMutability": "nonpayable",
      "type": "function"
    },
    {
      "inputs": [],
      "name": "owner",
      "outputs": [
        {
          "internalType": "address",
          "name": "",
          "type": "address"
        }
      ],
      "stateMutability": "view",
      "type": "function"
    },
    {
      "inputs": [
        {
          "internalType": "address",
          "name": "",
          "type": "address"
        },
        {
          "internalType": "uint256",
          "name": "",
          "type": "uint256"
        }
      ],
      "name": "positionIdsbyAddress",
      "outputs": [
        {
          "internalType": "uint256",
          "name": "",
          "type": "uint256"
        }
      ],
      "stateMutability": "view",
      "type": "function"
    },
    {
      "inputs": [
        {
          "internalType": "uint256",
          "name": "",
          "type": "uint256"
        }
      ],
      "name": "positions",
      "outputs": [
        {
          "internalType": "uint256",
          "name": "positionId",
          "type": "uint256"
        },
        {
          "internalType": "address",
          "name": "walletAddress",
          "type": "address"
        },
        {
          "internalType": "string",
          "name": "name",
          "type": "string"
        },
        {
          "internalType": "string",
          "name": "symbol",
          "type": "string"
        },
        {
          "internalType": "uint256",
          "name": "createDate",
          "type": "uint256"
        },
        {
          "internalType": "uint256",
          "name": "apy",
          "type": "uint256"
        },
        {
          "internalType": "uint256",
          "name": "tokenQuantity",
          "type": "uint256"
        },
        {
          "internalType": "uint256",
          "name": "usdValue",
          "type": "uint256"
        },
        {
          "internalType": "uint256",
          "name": "ethValue",
          "type": "uint256"
        },
        {
          "internalType": "bool",
          "name": "open",
          "type": "bool"
        }
      ],
      "stateMutability": "view",
      "type": "function"
    },
    {
      "inputs": [
        {
          "internalType": "string",
          "name": "",
          "type": "string"
        }
      ],
      "name": "stakedToken",
      "outputs": [
        {
          "internalType": "uint256",
          "name": "",
          "type": "uint256"
        }
      ],
      "stateMutability": "view",
      "type": "function"
    },
    {
      "inputs": [
        {
          "internalType": "string",
          "name": "_tokensymbol",
          "type": "string"
        },
        {
          "internalType": "uint256",
          "name": "_tokenQuantity",
          "type": "uint256"
        }
      ],
      "name": "stakedTokens",
      "outputs": [],
      "stateMutability": "nonpayable",
      "type": "function"
    },
    {
      "inputs": [
        {
          "internalType": "uint256",
          "name": "",
          "type": "uint256"
        }
      ],
      "name": "tokenSymbols",
      "outputs": [
        {
          "internalType": "string",
          "name": "",
          "type": "string"
        }
      ],
      "stateMutability": "view",
      "type": "function"
    },
    {
      "inputs": [
        {
          "internalType": "string",
          "name": "",
          "type": "string"
        }
      ],
      "name": "tokens",
      "outputs": [
        {
          "internalType": "uint256",
          "name": "tokenId",
          "type": "uint256"
        },
        {
          "internalType": "string",
          "name": "name",
          "type": "string"
        },
        {
          "internalType": "string",
          "name": "symbol",
          "type": "string"
        },
        {
          "internalType": "address",
          "name": "tokenAddress",
          "type": "address"
        },
        {
          "internalType": "uint256",
          "name": "usdPrice",
          "type": "uint256"
        },
        {
          "internalType": "uint256",
          "name": "ethPrice",
          "type": "uint256"
        },
        {
          "internalType": "uint256",
          "name": "apy",
          "type": "uint256"
        }
      ],
      "stateMutability": "view",
      "type": "function"
    }
  ],
  "bytecode": "0x608060405260018055600160055560405162002ef238038062002ef28339818101604052810190620000329190620000c0565b80600281905550336000806101000a81548173ffffffffffffffffffffffffffffffffffffffff021916908373ffffffffffffffffffffffffffffffffffffffff16021790555050620000f2565b600080fd5b6000819050919050565b6200009a8162000085565b8114620000a657600080fd5b50565b600081519050620000ba816200008f565b92915050565b600060208284031215620000d957620000d862000080565b5b6000620000e984828501620000a9565b91505092915050565b612df080620001026000396000f3fe608060405234801561001057600080fd5b50600436106101205760003560e01c80634b4ea954116100ad57806394b308ab1161007157806394b308ab1461033757806399fbab8814610353578063a126d6011461038c578063b838ec86146103a8578063c1733f68146103d857610120565b80634b4ea9541461027d57806364bc01461461029b5780636e7ddea8146102cb5780638da5cb5b146102fb5780639478ab8c1461031957610120565b806305b93816116100f457806305b93816146101c557806305e1bd8c146101e35780631131c8cd146102135780632406b5c01461023157806327f706551461026157610120565b80629a9b7b1461012557806303df19781461014357806304c2320b1461015f57806304e7efa814610195575b600080fd5b61012d610408565b60405161013a91906119dc565b60405180910390f35b61015d60048036038101906101589190611a9c565b61040e565b005b61017960048036038101906101749190611c3d565b6108b9565b60405161018c9796959493929190611d46565b60405180910390f35b6101af60048036038101906101aa9190611def565b610a41565b6040516101bc91906119dc565b60405180910390f35b6101cd610a72565b6040516101da9190611f3b565b60405180910390f35b6101fd60048036038101906101f89190611f5d565b610b4b565b60405161020a91906119dc565b60405180910390f35b61021b610b87565b60405161022891906119dc565b60405180910390f35b61024b60048036038101906102469190611fb0565b610b8d565b60405161025891906119dc565b60405180910390f35b61027b60048036038101906102769190611fdd565b610bc5565b005b610285610c72565b60405161029291906120db565b60405180910390f35b6102b560048036038101906102b09190611c3d565b610d07565b6040516102c291906119dc565b60405180910390f35b6102e560048036038101906102e09190611fb0565b610d35565b6040516102f291906120fd565b60405180910390f35b610303610de1565b604051610310919061211f565b60405180910390f35b610321610e05565b60405161032e91906119dc565b60405180910390f35b610351600480360381019061034c919061213a565b610e0b565b005b61036d60048036038101906103689190611fb0565b611096565b6040516103839a99989796959493929190612211565b60405180910390f35b6103a660048036038101906103a19190611fb0565b611227565b005b6103c260048036038101906103bd9190611fb0565b611529565b6040516103cf91906123ba565b60405180910390f35b6103f260048036038101906103ed91906123dc565b611728565b6040516103ff91906124cc565b60405180910390f35b60015481565b60006004848460405161042292919061251e565b90815260200160405180910390206000015403610474576040517f08c379a000000000000000000000000000000000000000000000000000000000815260040161046b90612583565b60405180910390fd5b6004838360405161048692919061251e565b908152602001604051809103902060030160009054906101000a900473ffffffffffffffffffffffffffffffffffffffff1673ffffffffffffffffffffffffffffffffffffffff166323b872dd3330846040518463ffffffff1660e01b81526004016104f4939291906125a3565b6020604051808303816000875af1158015610513573d6000803e3d6000fd5b505050506040513d601f19601f820116820180604052508101906105379190612606565b5060405180610140016040528060055481526020013373ffffffffffffffffffffffffffffffffffffffff1681526020016004858560405161057a92919061251e565b9081526020016040518091039020600101805461059690612662565b80601f01602080910402602001604051908101604052809291908181526020018280546105c290612662565b801561060f5780601f106105e45761010080835404028352916020019161060f565b820191906000526020600020905b8154815290600101906020018083116105f257829003601f168201915b5050505050815260200184848080601f016020809104026020016040519081016040528093929190818152602001838380828437600081840152601f19601f8201169050808301925050505050505081526020014281526020016004858560405161067b92919061251e565b908152602001604051809103902060060154815260200182815260200182600486866040516106ab92919061251e565b9081526020016040518091039020600401546106c791906126c2565b815260200160025483600487876040516106e292919061251e565b9081526020016040518091039020600401546106fe91906126c2565b6107089190612733565b8152602001600115158152506006600060055481526020019081526020016000206000820151816000015560208201518160010160006101000a81548173ffffffffffffffffffffffffffffffffffffffff021916908373ffffffffffffffffffffffffffffffffffffffff160217905550604082015181600201908161078f9190612910565b5060608201518160030190816107a59190612910565b506080820151816004015560a0820151816005015560c0820151816006015560e0820151816007015561010082015181600801556101208201518160090160006101000a81548160ff021916908315150217905550905050600760003373ffffffffffffffffffffffffffffffffffffffff1673ffffffffffffffffffffffffffffffffffffffff168152602001908152602001600020600554908060018154018082558091505060019003906000526020600020016000909190919091505560056000815480929190610878906129e2565b9190505550806008848460405161089092919061251e565b908152602001604051809103902060008282546108ad9190612a2a565b92505081905550505050565b6004818051602081018201805184825260208301602085012081835280955050505050506000915090508060000154908060010180546108f890612662565b80601f016020809104026020016040519081016040528092919081815260200182805461092490612662565b80156109715780601f1061094657610100808354040283529160200191610971565b820191906000526020600020905b81548152906001019060200180831161095457829003601f168201915b50505050509080600201805461098690612662565b80601f01602080910402602001604051908101604052809291908181526020018280546109b290612662565b80156109ff5780601f106109d4576101008083540402835291602001916109ff565b820191906000526020600020905b8154815290600101906020018083116109e257829003601f168201915b5050505050908060030160009054906101000a900473ffffffffffffffffffffffffffffffffffffffff16908060040154908060050154908060060154905087565b60076020528160005260406000208181548110610a5d57600080fd5b90600052602060002001600091509150505481565b60606003805480602002602001604051908101604052809291908181526020016000905b82821015610b42578382906000526020600020018054610ab590612662565b80601f0160208091040260200160405190810160405280929190818152602001828054610ae190612662565b8015610b2e5780601f10610b0357610100808354040283529160200191610b2e565b820191906000526020600020905b815481529060010190602001808311610b1157829003601f168201915b505050505081526020019060010190610a96565b50505050905090565b600061016d612710838587610b6091906126c2565b610b6a91906126c2565b610b749190612733565b610b7e9190612733565b90509392505050565b60055481565b60006018603c808442610ba09190612a5e565b610baa9190612733565b610bb49190612733565b610bbe9190612733565b9050919050565b3373ffffffffffffffffffffffffffffffffffffffff1660008054906101000a900473ffffffffffffffffffffffffffffffffffffffff1673ffffffffffffffffffffffffffffffffffffffff1614610c53576040517f08c379a0000000000000000000000000000000000000000000000000000000008152600401610c4a90612ade565b60405180910390fd5b8060066000848152602001908152602001600020600401819055505050565b6060600760003373ffffffffffffffffffffffffffffffffffffffff1673ffffffffffffffffffffffffffffffffffffffff168152602001908152602001600020805480602002602001604051908101604052809291908181526020018280548015610cfd57602002820191906000526020600020905b815481526020019060010190808311610ce9575b5050505050905090565b6008818051602081018201805184825260208301602085012081835280955050505050506000915090505481565b60038181548110610d4557600080fd5b906000526020600020016000915090508054610d6090612662565b80601f0160208091040260200160405190810160405280929190818152602001828054610d8c90612662565b8015610dd95780601f10610dae57610100808354040283529160200191610dd9565b820191906000526020600020905b815481529060010190602001808311610dbc57829003601f168201915b505050505081565b60008054906101000a900473ffffffffffffffffffffffffffffffffffffffff1681565b60025481565b3373ffffffffffffffffffffffffffffffffffffffff1660008054906101000a900473ffffffffffffffffffffffffffffffffffffffff1673ffffffffffffffffffffffffffffffffffffffff1614610e99576040517f08c379a0000000000000000000000000000000000000000000000000000000008152600401610e9090612ade565b60405180910390fd5b6003858590918060018154018082558091505060019003906000526020600020016000909192909192909192909192509182610ed6929190612b09565b506040518060e00160405280600154815260200188888080601f016020809104026020016040519081016040528093929190818152602001838380828437600081840152601f19601f82011690508083019250505050505050815260200186868080601f016020809104026020016040519081016040528093929190818152602001838380828437600081840152601f19601f8201169050808301925050505050505081526020018473ffffffffffffffffffffffffffffffffffffffff16815260200183815260200160025484610fae9190612733565b81526020018281525060048686604051610fc992919061251e565b9081526020016040518091039020600082015181600001556020820151816001019081610ff69190612910565b50604082015181600201908161100c9190612910565b5060608201518160030160006101000a81548173ffffffffffffffffffffffffffffffffffffffff021916908373ffffffffffffffffffffffffffffffffffffffff1602179055506080820151816004015560a0820151816005015560c0820151816006015590505060016000815480929190611088906129e2565b919050555050505050505050565b60066020528060005260406000206000915090508060000154908060010160009054906101000a900473ffffffffffffffffffffffffffffffffffffffff16908060020180546110e590612662565b80601f016020809104026020016040519081016040528092919081815260200182805461111190612662565b801561115e5780601f106111335761010080835404028352916020019161115e565b820191906000526020600020905b81548152906001019060200180831161114157829003601f168201915b50505050509080600301805461117390612662565b80601f016020809104026020016040519081016040528092919081815260200182805461119f90612662565b80156111ec5780601f106111c1576101008083540402835291602001916111ec565b820191906000526020600020905b8154815290600101906020018083116111cf57829003601f168201915b5050505050908060040154908060050154908060060154908060070154908060080154908060090160009054906101000a900460ff1690508a565b3373ffffffffffffffffffffffffffffffffffffffff166006600083815260200190815260200160002060010160009054906101000a900473ffffffffffffffffffffffffffffffffffffffff1673ffffffffffffffffffffffffffffffffffffffff16146112cb576040517f08c379a00000000000000000000000000000000000000000000000000000000081526004016112c290612c25565b60405180910390fd5b600115156006600083815260200190815260200160002060090160009054906101000a900460ff16151514611335576040517f08c379a000000000000000000000000000000000000000000000000000000000815260040161132c90612c91565b60405180910390fd5b60006006600083815260200190815260200160002060090160006101000a81548160ff0219169083151502179055506004600660008381526020019081526020016000206003016040516113899190612d34565b908152602001604051809103902060030160009054906101000a900473ffffffffffffffffffffffffffffffffffffffff1673ffffffffffffffffffffffffffffffffffffffff1663a9059cbb3360066000858152602001908152602001600020600601546040518363ffffffff1660e01b815260040161140b929190612d4b565b6020604051808303816000875af115801561142a573d6000803e3d6000fd5b505050506040513d601f19601f8201168201806040525081019061144e9190612606565b5060006114706006600084815260200190815260200160002060040154610b8d565b905060006114ab6006600085815260200190815260200160002060050154600660008681526020019081526020016000206008015484610b4b565b905060003373ffffffffffffffffffffffffffffffffffffffff16826040516114d390612da5565b60006040518083038185875af1925050503d8060008114611510576040519150601f19603f3d011682016040523d82523d6000602084013e611515565b606091505b505090508061152357600080fd5b50505050565b611531611905565b6006600083815260200190815260200160002060405180610140016040529081600082015481526020016001820160009054906101000a900473ffffffffffffffffffffffffffffffffffffffff1673ffffffffffffffffffffffffffffffffffffffff1673ffffffffffffffffffffffffffffffffffffffff1681526020016002820180546115c090612662565b80601f01602080910402602001604051908101604052809291908181526020018280546115ec90612662565b80156116395780601f1061160e57610100808354040283529160200191611639565b820191906000526020600020905b81548152906001019060200180831161161c57829003601f168201915b5050505050815260200160038201805461165290612662565b80601f016020809104026020016040519081016040528092919081815260200182805461167e90612662565b80156116cb5780601f106116a0576101008083540402835291602001916116cb565b820191906000526020600020905b8154815290600101906020018083116116ae57829003601f168201915b5050505050815260200160048201548152602001600582015481526020016006820154815260200160078201548152602001600882015481526020016009820160009054906101000a900460ff1615151515815250509050919050565b611730611970565b6004838360405161174292919061251e565b90815260200160405180910390206040518060e00160405290816000820154815260200160018201805461177590612662565b80601f01602080910402602001604051908101604052809291908181526020018280546117a190612662565b80156117ee5780601f106117c3576101008083540402835291602001916117ee565b820191906000526020600020905b8154815290600101906020018083116117d157829003601f168201915b5050505050815260200160028201805461180790612662565b80601f016020809104026020016040519081016040528092919081815260200182805461183390612662565b80156118805780601f1061185557610100808354040283529160200191611880565b820191906000526020600020905b81548152906001019060200180831161186357829003601f168201915b505050505081526020016003820160009054906101000a900473ffffffffffffffffffffffffffffffffffffffff1673ffffffffffffffffffffffffffffffffffffffff1673ffffffffffffffffffffffffffffffffffffffff1681526020016004820154815260200160058201548152602001600682015481525050905092915050565b60405180610140016040528060008152602001600073ffffffffffffffffffffffffffffffffffffffff168152602001606081526020016060815260200160008152602001600081526020016000815260200160008152602001600081526020016000151581525090565b6040518060e00160405280600081526020016060815260200160608152602001600073ffffffffffffffffffffffffffffffffffffffff1681526020016000815260200160008152602001600081525090565b6000819050919050565b6119d6816119c3565b82525050565b60006020820190506119f160008301846119cd565b92915050565b6000604051905090565b600080fd5b600080fd5b600080fd5b600080fd5b600080fd5b60008083601f840112611a3057611a2f611a0b565b5b8235905067ffffffffffffffff811115611a4d57611a4c611a10565b5b602083019150836001820283011115611a6957611a68611a15565b5b9250929050565b611a79816119c3565b8114611a8457600080fd5b50565b600081359050611a9681611a70565b92915050565b600080600060408486031215611ab557611ab4611a01565b5b600084013567ffffffffffffffff811115611ad357611ad2611a06565b5b611adf86828701611a1a565b93509350506020611af286828701611a87565b9150509250925092565b600080fd5b6000601f19601f8301169050919050565b7f4e487b7100000000000000000000000000000000000000000000000000000000600052604160045260246000fd5b611b4a82611b01565b810181811067ffffffffffffffff82111715611b6957611b68611b12565b5b80604052505050565b6000611b7c6119f7565b9050611b888282611b41565b919050565b600067ffffffffffffffff821115611ba857611ba7611b12565b5b611bb182611b01565b9050602081019050919050565b82818337600083830152505050565b6000611be0611bdb84611b8d565b611b72565b905082815260208101848484011115611bfc57611bfb611afc565b5b611c07848285611bbe565b509392505050565b600082601f830112611c2457611c23611a0b565b5b8135611c34848260208601611bcd565b91505092915050565b600060208284031215611c5357611c52611a01565b5b600082013567ffffffffffffffff811115611c7157611c70611a06565b5b611c7d84828501611c0f565b91505092915050565b600081519050919050565b600082825260208201905092915050565b60005b83811015611cc0578082015181840152602081019050611ca5565b60008484015250505050565b6000611cd782611c86565b611ce18185611c91565b9350611cf1818560208601611ca2565b611cfa81611b01565b840191505092915050565b600073ffffffffffffffffffffffffffffffffffffffff82169050919050565b6000611d3082611d05565b9050919050565b611d4081611d25565b82525050565b600060e082019050611d5b600083018a6119cd565b8181036020830152611d6d8189611ccc565b90508181036040830152611d818188611ccc565b9050611d906060830187611d37565b611d9d60808301866119cd565b611daa60a08301856119cd565b611db760c08301846119cd565b98975050505050505050565b611dcc81611d25565b8114611dd757600080fd5b50565b600081359050611de981611dc3565b92915050565b60008060408385031215611e0657611e05611a01565b5b6000611e1485828601611dda565b9250506020611e2585828601611a87565b9150509250929050565b600081519050919050565b600082825260208201905092915050565b6000819050602082019050919050565b600082825260208201905092915050565b6000611e7782611c86565b611e818185611e5b565b9350611e91818560208601611ca2565b611e9a81611b01565b840191505092915050565b6000611eb18383611e6c565b905092915050565b6000602082019050919050565b6000611ed182611e2f565b611edb8185611e3a565b935083602082028501611eed85611e4b565b8060005b85811015611f295784840389528151611f0a8582611ea5565b9450611f1583611eb9565b925060208a01995050600181019050611ef1565b50829750879550505050505092915050565b60006020820190508181036000830152611f558184611ec6565b905092915050565b600080600060608486031215611f7657611f75611a01565b5b6000611f8486828701611a87565b9350506020611f9586828701611a87565b9250506040611fa686828701611a87565b9150509250925092565b600060208284031215611fc657611fc5611a01565b5b6000611fd484828501611a87565b91505092915050565b60008060408385031215611ff457611ff3611a01565b5b600061200285828601611a87565b925050602061201385828601611a87565b9150509250929050565b600081519050919050565b600082825260208201905092915050565b6000819050602082019050919050565b612052816119c3565b82525050565b60006120648383612049565b60208301905092915050565b6000602082019050919050565b60006120888261201d565b6120928185612028565b935061209d83612039565b8060005b838110156120ce5781516120b58882612058565b97506120c083612070565b9250506001810190506120a1565b5085935050505092915050565b600060208201905081810360008301526120f5818461207d565b905092915050565b600060208201905081810360008301526121178184611ccc565b905092915050565b60006020820190506121346000830184611d37565b92915050565b600080600080600080600060a0888a03121561215957612158611a01565b5b600088013567ffffffffffffffff81111561217757612176611a06565b5b6121838a828b01611a1a565b9750975050602088013567ffffffffffffffff8111156121a6576121a5611a06565b5b6121b28a828b01611a1a565b955095505060406121c58a828b01611dda565b93505060606121d68a828b01611a87565b92505060806121e78a828b01611a87565b91505092959891949750929550565b60008115159050919050565b61220b816121f6565b82525050565b600061014082019050612227600083018d6119cd565b612234602083018c611d37565b8181036040830152612246818b611ccc565b9050818103606083015261225a818a611ccc565b905061226960808301896119cd565b61227660a08301886119cd565b61228360c08301876119cd565b61229060e08301866119cd565b61229e6101008301856119cd565b6122ac610120830184612202565b9b9a5050505050505050505050565b6122c481611d25565b82525050565b6122d3816121f6565b82525050565b6000610140830160008301516122f26000860182612049565b50602083015161230560208601826122bb565b506040830151848203604086015261231d8282611e6c565b915050606083015184820360608601526123378282611e6c565b915050608083015161234c6080860182612049565b5060a083015161235f60a0860182612049565b5060c083015161237260c0860182612049565b5060e083015161238560e0860182612049565b5061010083015161239a610100860182612049565b506101208301516123af6101208601826122ca565b508091505092915050565b600060208201905081810360008301526123d481846122d9565b905092915050565b600080602083850312156123f3576123f2611a01565b5b600083013567ffffffffffffffff81111561241157612410611a06565b5b61241d85828601611a1a565b92509250509250929050565b600060e0830160008301516124416000860182612049565b50602083015184820360208601526124598282611e6c565b915050604083015184820360408601526124738282611e6c565b915050606083015161248860608601826122bb565b50608083015161249b6080860182612049565b5060a08301516124ae60a0860182612049565b5060c08301516124c160c0860182612049565b508091505092915050565b600060208201905081810360008301526124e68184612429565b905092915050565b600081905092915050565b600061250583856124ee565b9350612512838584611bbe565b82840190509392505050565b600061252b8284866124f9565b91508190509392505050565b7f5448495320544f4b454e20434f4e5427204245205354414b4544212000000000600082015250565b600061256d601c83611c91565b915061257882612537565b602082019050919050565b6000602082019050818103600083015261259c81612560565b9050919050565b60006060820190506125b86000830186611d37565b6125c56020830185611d37565b6125d260408301846119cd565b949350505050565b6125e3816121f6565b81146125ee57600080fd5b50565b600081519050612600816125da565b92915050565b60006020828403121561261c5761261b611a01565b5b600061262a848285016125f1565b91505092915050565b7f4e487b7100000000000000000000000000000000000000000000000000000000600052602260045260246000fd5b6000600282049050600182168061267a57607f821691505b60208210810361268d5761268c612633565b5b50919050565b7f4e487b7100000000000000000000000000000000000000000000000000000000600052601160045260246000fd5b60006126cd826119c3565b91506126d8836119c3565b92508282026126e6816119c3565b915082820484148315176126fd576126fc612693565b5b5092915050565b7f4e487b7100000000000000000000000000000000000000000000000000000000600052601260045260246000fd5b600061273e826119c3565b9150612749836119c3565b92508261275957612758612704565b5b828204905092915050565b60008190508160005260206000209050919050565b60006020601f8301049050919050565b600082821b905092915050565b6000600883026127c67fffffffffffffffffffffffffffffffffffffffffffffffffffffffffffffffff82612789565b6127d08683612789565b95508019841693508086168417925050509392505050565b6000819050919050565b600061280d612808612803846119c3565b6127e8565b6119c3565b9050919050565b6000819050919050565b612827836127f2565b61283b61283382612814565b848454612796565b825550505050565b600090565b612850612843565b61285b81848461281e565b505050565b5b8181101561287f57612874600082612848565b600181019050612861565b5050565b601f8211156128c45761289581612764565b61289e84612779565b810160208510156128ad578190505b6128c16128b985612779565b830182612860565b50505b505050565b600082821c905092915050565b60006128e7600019846008026128c9565b1980831691505092915050565b600061290083836128d6565b9150826002028217905092915050565b61291982611c86565b67ffffffffffffffff81111561293257612931611b12565b5b61293c8254612662565b612947828285612883565b600060209050601f83116001811461297a5760008415612968578287015190505b61297285826128f4565b8655506129da565b601f19841661298886612764565b60005b828110156129b05784890151825560018201915060208501945060208101905061298b565b868310156129cd57848901516129c9601f8916826128d6565b8355505b6001600288020188555050505b505050505050565b60006129ed826119c3565b91507fffffffffffffffffffffffffffffffffffffffffffffffffffffffffffffffff8203612a1f57612a1e612693565b5b600182019050919050565b6000612a35826119c3565b9150612a40836119c3565b9250828201905080821115612a5857612a57612693565b5b92915050565b6000612a69826119c3565b9150612a74836119c3565b9250828203905081811115612a8c57612a8b612693565b5b92915050565b7f4e4f54204f574e45522100000000000000000000000000000000000000000000600082015250565b6000612ac8600a83611c91565b9150612ad382612a92565b602082019050919050565b60006020820190508181036000830152612af781612abb565b9050919050565b600082905092915050565b612b138383612afe565b67ffffffffffffffff811115612b2c57612b2b611b12565b5b612b368254612662565b612b41828285612883565b6000601f831160018114612b705760008415612b5e578287013590505b612b6885826128f4565b865550612bd0565b601f198416612b7e86612764565b60005b82811015612ba657848901358255600182019150602085019450602081019050612b81565b86831015612bc35784890135612bbf601f8916826128d6565b8355505b6001600288020188555050505b50505050505050565b7f4e4f5420544845204f574e4552204f46205448495320504f534954494f4e2100600082015250565b6000612c0f601f83611c91565b9150612c1a82612bd9565b602082019050919050565b60006020820190508181036000830152612c3e81612c02565b9050919050565b7f504f534954494f4e20495320414c524541445920434c4f534544212121000000600082015250565b6000612c7b601d83611c91565b9150612c8682612c45565b602082019050919050565b60006020820190508181036000830152612caa81612c6e565b9050919050565b60008154612cbe81612662565b612cc881866124ee565b94506001821660008114612ce35760018114612cf857612d2b565b60ff1983168652811515820286019350612d2b565b612d0185612764565b60005b83811015612d2357815481890152600182019150602081019050612d04565b838801955050505b50505092915050565b6000612d408284612cb1565b915081905092915050565b6000604082019050612d606000830185611d37565b612d6d60208301846119cd565b9392505050565b600081905092915050565b50565b6000612d8f600083612d74565b9150612d9a82612d7f565b600082019050919050565b6000612db082612d82565b915081905091905056fea2646970667358221220035c13d30407f725aadefb51d2fd3f25eb17babee3fc99612ef3b3fcdd1b1b4364736f6c63430008120033",
  "linkReferences": {},
  "deployedLinkReferences": {}
}